{"contracts/DataStorage.sol":{"DataStorage":{"abi":[{"anonymous":false,"inputs":[{"indexed":true,"internalType":"uint256","name":"eventId","type":"uint256"},{"indexed":true,"internalType":"address","name":"from","type":"address"},{"indexed":false,"internalType":"string","name":"message","type":"string"},{"indexed":false,"internalType":"uint256","name":"timestamp","type":"uint256"}],"name":"DataWritten","type":"event"},{"inputs":[],"name":"eventCounter","outputs":[{"internalType":"uint256","name":"","type":"uint256"}],"stateMutability":"view","type":"function"},{"inputs":[{"internalType":"string","name":"message","type":"string"}],"name":"writeData","outputs":[],"stateMutability":"nonpayable","type":"function"}],"evm":{"bytecode":{"linkReferences":{},"object":"608060405234801561001057600080fd5b50610318806100206000396000f3fe608060405234801561001057600080fd5b50600436106100365760003560e01c8063134bc8761461003b57806352c55db914610057575b600080fd5b6100556004803603810190610050919061015a565b610075565b005b61005f6100e5565b60405161006c91906101c0565b60405180910390f35b3373ffffffffffffffffffffffffffffffffffffffff166000547f69b1904e8a9a1cdb3ac2a9715c93a9188b115b1bc79f97a45cc66ce1086910508484426040516100c293929190610239565b60405180910390a36000808154809291906100dc9061029a565b91905055505050565b60005481565b600080fd5b600080fd5b600080fd5b600080fd5b600080fd5b60008083601f84011261011a576101196100f5565b5b8235905067ffffffffffffffff811115610137576101366100fa565b5b602083019150836001820283011115610153576101526100ff565b5b9250929050565b60008060208385031215610171576101706100eb565b5b600083013567ffffffffffffffff81111561018f5761018e6100f0565b5b61019b85828601610104565b92509250509250929050565b6000819050919050565b6101ba816101a7565b82525050565b60006020820190506101d560008301846101b1565b92915050565b600082825260208201905092915050565b82818337600083830152505050565b6000601f19601f8301169050919050565b600061021883856101db565b93506102258385846101ec565b61022e836101fb565b840190509392505050565b6000604082019050818103600083015261025481858761020c565b905061026360208301846101b1565b949350505050565b7f4e487b7100000000000000000000000000000000000000000000000000000000600052601160045260246000fd5b60006102a5826101a7565b91507fffffffffffffffffffffffffffffffffffffffffffffffffffffffffffffffff82036102d7576102d661026b565b5b60018201905091905056fea2646970667358221220cd2f94668ce0a566a45a0588efa7cc03720d63202d1bec2c2832ac8cdea5a14664736f6c63430008150033","opcodes":"PUSH1 0x80 PUSH1 0x40 MSTORE CALLVALUE DUP1 ISZERO PUSH2 0x10 JUMPI PUSH1 0x0 DUP1 REVERT JUMPDEST POP PUSH2 0x318 DUP1 PUSH2 0x20 PUSH1 0x0 CODECOPY PUSH1 0x0 RETURN INVALID PUSH1 0x80 PUSH1 0x40 MSTORE CALLVALUE DUP1 ISZERO PUSH2 0x10 JUMPI PUSH1 0x0 DUP1 REVERT JUMPDEST POP PUSH1 0x4 CALLDATASIZE LT PUSH2 0x36 JUMPI PUSH1 0x0 CALLDATALOAD PUSH1 0xE0 SHR DUP1 PUSH4 0x134BC876 EQ PUSH2 0x3B JUMPI DUP1 PUSH4 0x52C55DB9 EQ PUSH2 0x57 JUMPI JUMPDEST PUSH1 0x0 DUP1 REVERT JUMPDEST PUSH2 0x55 PUSH1 0x4 DUP1 CALLDATASIZE SUB DUP2 ADD SWAP1 PUSH2 0x50 SWAP2 SWAP1 PUSH2 0x15A JUMP JUMPDEST PUSH2 0x75 JUMP JUMPDEST STOP JUMPDEST PUSH2 0x5F PUSH2 0xE5 JUMP JUMPDEST PUSH1 0x40 MLOAD PUSH2 0x6C SWAP2 SWAP1 PUSH2 0x1C0 JUMP JUMPDEST PUSH1 0x40 MLOAD DUP1 SWAP2 SUB SWAP1 RETURN JUMPDEST CALLER PUSH20 0xFFFFFFFFFFFFFFFFFFFFFFFFFFFFFFFFFFFFFFFF AND PUSH1 0x0 SLOAD PUSH32 0x69B1904E8A9A1CDB3AC2A9715C93A9188B115B1BC79F97A45CC66CE108691050 DUP5 DUP5 TIMESTAMP PUSH1 0x40 MLOAD PUSH2 0xC2 SWAP4 SWAP3 SWAP2 SWAP1 PUSH2 0x239 JUMP JUMPDEST PUSH1 0x40 MLOAD DUP1 SWAP2 SUB SWAP1 LOG3 PUSH1 0x0 DUP1 DUP2 SLOAD DUP1 SWAP3 SWAP2 SWAP1 PUSH2 0xDC SWAP1 PUSH2 0x29A JUMP JUMPDEST SWAP2 SWAP1 POP SSTORE POP POP POP JUMP JUMPDEST PUSH1 0x0 SLOAD DUP2 JUMP JUMPDEST PUSH1 0x0 DUP1 REVERT JUMPDEST PUSH1 0x0 DUP1 REVERT JUMPDEST PUSH1 0x0 DUP1 REVERT JUMPDEST PUSH1 0x0 DUP1 REVERT JUMPDEST PUSH1 0x0 DUP1 REVERT JUMPDEST PUSH1 0x0 DUP1 DUP4 PUSH1 0x1F DUP5 ADD SLT PUSH2 0x11A JUMPI PUSH2 0x119 PUSH2 0xF5 JUMP JUMPDEST JUMPDEST DUP3 CALLDATALOAD SWAP1 POP PUSH8 0xFFFFFFFFFFFFFFFF DUP2 GT ISZERO PUSH2 0x137 JUMPI PUSH2 0x136 PUSH2 0xFA JUMP JUMPDEST JUMPDEST PUSH1 0x20 DUP4 ADD SWAP2 POP DUP4 PUSH1 0x1 DUP3 MUL DUP4 ADD GT ISZERO PUSH2 0x153 JUMPI PUSH2 0x152 PUSH2 0xFF JUMP JUMPDEST JUMPDEST SWAP3 POP SWAP3 SWAP1 POP JUMP JUMPDEST PUSH1 0x0 DUP1 PUSH1 0x20 DUP4 DUP6 SUB SLT ISZERO PUSH2 0x171 JUMPI PUSH2 0x170 PUSH2 0xEB JUMP JUMPDEST JUMPDEST PUSH1 0x0 DUP4 ADD CALLDATALOAD PUSH8 0xFFFFFFFFFFFFFFFF DUP2 GT ISZERO PUSH2 0x18F JUMPI PUSH2 0x18E PUSH2 0xF0 JUMP JUMPDEST JUMPDEST PUSH2 0x19B DUP6 DUP3 DUP7 ADD PUSH2 0x104 JUMP JUMPDEST SWAP3 POP SWAP3 POP POP SWAP3 POP SWAP3 SWAP1 POP JUMP JUMPDEST PUSH1 0x0 DUP2 SWAP1 POP SWAP2 SWAP1 POP JUMP JUMPDEST PUSH2 0x1BA DUP2 PUSH2 0x1A7 JUMP JUMPDEST DUP3 MSTORE POP POP JUMP JUMPDEST PUSH1 0x0 PUSH1 0x20 DUP3 ADD SWAP1 POP PUSH2 0x1D5 PUSH1 0x0 DUP4 ADD DUP5 PUSH2 0x1B1 JUMP JUMPDEST SWAP3 SWAP2 POP POP JUMP JUMPDEST PUSH1 0x0 DUP3 DUP3 MSTORE PUSH1 0x20 DUP3 ADD SWAP1 POP SWAP3 SWAP2 POP POP JUMP JUMPDEST DUP3 DUP2 DUP4 CALLDATACOPY PUSH1 0x0 DUP4 DUP4 ADD MSTORE POP POP POP JUMP JUMPDEST PUSH1 0x0 PUSH1 0x1F NOT PUSH1 0x1F DUP4 ADD AND SWAP1 POP SWAP2 SWAP1 POP JUMP JUMPDEST PUSH1 0x0 PUSH2 0x218 DUP4 DUP6 PUSH2 0x1DB JUMP JUMPDEST SWAP4 POP PUSH2 0x225 DUP4 DUP6 DUP5 PUSH2 0x1EC JUMP JUMPDEST PUSH2 0x22E DUP4 PUSH2 0x1FB JUMP JUMPDEST DUP5 ADD SWAP1 POP SWAP4 SWAP3 POP POP POP JUMP JUMPDEST PUSH1 0x0 PUSH1 0x40 DUP3 ADD SWAP1 POP DUP2 DUP2 SUB PUSH1 0x0 DUP4 ADD MSTORE PUSH2 0x254 DUP2 DUP6 DUP8 PUSH2 0x20C JUMP JUMPDEST SWAP1 POP PUSH2 0x263 PUSH1 0x20 DUP4 ADD DUP5 PUSH2 0x1B1 JUMP JUMPDEST SWAP5 SWAP4 POP POP POP POP JUMP JUMPDEST PUSH32 0x4E487B7100000000000000000000000000000000000000000000000000000000 PUSH1 0x0 MSTORE PUSH1 0x11 PUSH1 0x4 MSTORE PUSH1 0x24 PUSH1 0x0 REVERT JUMPDEST PUSH1 0x0 PUSH2 0x2A5 DUP3 PUSH2 0x1A7 JUMP JUMPDEST SWAP2 POP PUSH32 0xFFFFFFFFFFFFFFFFFFFFFFFFFFFFFFFFFFFFFFFFFFFFFFFFFFFFFFFFFFFFFFFF DUP3 SUB PUSH2 0x2D7 JUMPI PUSH2 0x2D6 PUSH2 0x26B JUMP JUMPDEST JUMPDEST PUSH1 0x1 DUP3 ADD SWAP1 POP SWAP2 SWAP1 POP JUMP INVALID LOG2 PUSH5 0x6970667358 0x22 SLT KECCAK256 0xCD 0x2F SWAP5 PUSH7 0x8CE0A566A45A05 DUP9 0xEF 0xA7 0xCC SUB PUSH19 0xD63202D1BEC2C2832AC8CDEA5A14664736F6C PUSH4 0x43000815 STOP CALLER "},"methodIdentifiers":{"eventCounter()":"52c55db9","writeData(string)":"134bc876"}}}}}