{
  "contractName": "SwapAndMemo",
  "abi": [
    {
      "anonymous": false,
      "inputs": [
        {
          "indexed": true,
          "internalType": "address",
          "name": "from",
          "type": "address"
        },
        {
          "indexed": true,
          "internalType": "address",
          "name": "recipient",
          "type": "address"
        },
        {
          "indexed": false,
          "internalType": "string",
          "name": "message",
          "type": "string"
        },
        {
          "indexed": false,
          "internalType": "uint256",
          "name": "amountIn",
          "type": "uint256"
        },
        {
          "indexed": false,
          "internalType": "uint256",
          "name": "amountOut",
          "type": "uint256"
        }
      ],
      "name": "MemoizedSwap",
      "type": "event"
    },
    {
      "inputs": [],
      "name": "UNISWAP_V2_ROUTER",
      "outputs": [
        {
          "internalType": "address",
          "name": "",
          "type": "address"
        }
      ],
      "stateMutability": "view",
      "type": "function"
    },
    {
      "inputs": [],
      "name": "WETH",
      "outputs": [
        {
          "internalType": "address",
          "name": "",
          "type": "address"
        }
      ],
      "stateMutability": "view",
      "type": "function"
    },
    {
      "stateMutability": "payable",
      "type": "receive"
    },
    {
      "inputs": [
        {
          "internalType": "uint256",
          "name": "amountOutMin",
          "type": "uint256"
        },
        {
          "internalType": "address",
          "name": "tokenAddress",
          "type": "address"
        },
        {
          "internalType": "address",
          "name": "recipient",
          "type": "address"
        },
        {
          "internalType": "string",
          "name": "message",
          "type": "string"
        }
      ],
      "name": "swapEthForTokenWithMemo",
      "outputs": [],
      "stateMutability": "payable",
      "type": "function"
    }
  ],
  "bytecode": "0x608060405234801561000f575f80fd5b506109ed8061001d5f395ff3fe608060405260043610610037575f3560e01c806326c2c0c614610042578063a82ed9ec1461005e578063ad5c4648146100885761003e565b3661003e57005b5f80fd5b61005c600480360381019061005791906104d3565b6100b2565b005b348015610069575f80fd5b506100726103a4565b60405161007f9190610566565b60405180910390f35b348015610093575f80fd5b5061009c6103bc565b6040516100a99190610566565b60405180910390f35b5f34116100f4576040517f08c379a00000000000000000000000000000000000000000000000000000000081526004016100eb906105d9565b60405180910390fd5b5f73ffffffffffffffffffffffffffffffffffffffff168373ffffffffffffffffffffffffffffffffffffffff1603610162576040517f08c379a000000000000000000000000000000000000000000000000000000000815260040161015990610641565b60405180910390fd5b5f600267ffffffffffffffff81111561017e5761017d61065f565b5b6040519080825280602002602001820160405280156101ac5781602001602082028036833780820191505090505b509050737b79995e5f793a07bc00c21412e50eaae098e7f9815f815181106101d7576101d661068c565b5b602002602001019073ffffffffffffffffffffffffffffffffffffffff16908173ffffffffffffffffffffffffffffffffffffffff168152505084816001815181106102265761022561068c565b5b602002602001019073ffffffffffffffffffffffffffffffffffffffff16908173ffffffffffffffffffffffffffffffffffffffff16815250505f73c532a74256d3db421742e45f0e6114c40f2837da73ffffffffffffffffffffffffffffffffffffffff16637ff36ab534898589426040518663ffffffff1660e01b81526004016102b5949392919061077f565b5f6040518083038185885af11580156102d0573d5f803e3d5ffd5b50505050506040513d5f823e3d601f19601f820116820180604052508101906102f991906108f8565b90508473ffffffffffffffffffffffffffffffffffffffff163373ffffffffffffffffffffffffffffffffffffffff167f83ebb074acde6c9d1f4c31800aeba25426240672b8bdcb830f24d1f83da9366f8686855f8151811061035f5761035e61068c565b5b60200260200101518660018151811061037b5761037a61068c565b5b60200260200101516040516103939493929190610979565b60405180910390a350505050505050565b73c532a74256d3db421742e45f0e6114c40f2837da81565b737b79995e5f793a07bc00c21412e50eaae098e7f981565b5f604051905090565b5f80fd5b5f80fd5b5f819050919050565b6103f7816103e5565b8114610401575f80fd5b50565b5f81359050610412816103ee565b92915050565b5f73ffffffffffffffffffffffffffffffffffffffff82169050919050565b5f61044182610418565b9050919050565b61045181610437565b811461045b575f80fd5b50565b5f8135905061046c81610448565b92915050565b5f80fd5b5f80fd5b5f80fd5b5f8083601f84011261049357610492610472565b5b8235905067ffffffffffffffff8111156104b0576104af610476565b5b6020830191508360018202830111156104cc576104cb61047a565b5b9250929050565b5f805f805f608086880312156104ec576104eb6103dd565b5b5f6104f988828901610404565b955050602061050a8882890161045e565b945050604061051b8882890161045e565b935050606086013567ffffffffffffffff81111561053c5761053b6103e1565b5b6105488882890161047e565b92509250509295509295909350565b61056081610437565b82525050565b5f6020820190506105795f830184610557565b92915050565b5f82825260208201905092915050565b7f4d7573742073656e642045544820746f207377617000000000000000000000005f82015250565b5f6105c360158361057f565b91506105ce8261058f565b602082019050919050565b5f6020820190508181035f8301526105f0816105b7565b9050919050565b7f496e76616c696420726563697069656e740000000000000000000000000000005f82015250565b5f61062b60118361057f565b9150610636826105f7565b602082019050919050565b5f6020820190508181035f8301526106588161061f565b9050919050565b7f4e487b71000000000000000000000000000000000000000000000000000000005f52604160045260245ffd5b7f4e487b71000000000000000000000000000000000000000000000000000000005f52603260045260245ffd5b6106c2816103e5565b82525050565b5f81519050919050565b5f82825260208201905092915050565b5f819050602082019050919050565b6106fa81610437565b82525050565b5f61070b83836106f1565b60208301905092915050565b5f602082019050919050565b5f61072d826106c8565b61073781856106d2565b9350610742836106e2565b805f5b838110156107725781516107598882610700565b975061076483610717565b925050600181019050610745565b5085935050505092915050565b5f6080820190506107925f8301876106b9565b81810360208301526107a48186610723565b90506107b36040830185610557565b6107c060608301846106b9565b95945050505050565b5f601f19601f8301169050919050565b6107e2826107c9565b810181811067ffffffffffffffff821117156108015761080061065f565b5b80604052505050565b5f6108136103d4565b905061081f82826107d9565b919050565b5f67ffffffffffffffff82111561083e5761083d61065f565b5b602082029050602081019050919050565b5f8151905061085d816103ee565b92915050565b5f61087561087084610824565b61080a565b905080838252602082019050602084028301858111156108985761089761047a565b5b835b818110156108c157806108ad888261084f565b84526020840193505060208101905061089a565b5050509392505050565b5f82601f8301126108df576108de610472565b5b81516108ef848260208601610863565b91505092915050565b5f6020828403121561090d5761090c6103dd565b5b5f82015167ffffffffffffffff81111561092a576109296103e1565b5b610936848285016108cb565b91505092915050565b828183375f83830152505050565b5f610958838561057f565b935061096583858461093f565b61096e836107c9565b840190509392505050565b5f6060820190508181035f83015261099281868861094d565b90506109a160208301856106b9565b6109ae60408301846106b9565b9594505050505056fea264697066735822122040c75ae43817aa05831b34df811e0d5162bcd3ead1faea4fc0b5fbbe62e9943064736f6c63430008150033",
  "immutableReferences": {},
  "source": "// contracts/SwapAndMemo.sol\n// SPDX-License-Identifier: MIT\npragma solidity ^0.8.20;\n\n// \n// \n\n// Uniswap V2 Router \ninterface IUniswapV2Router {\n    function swapExactETHForTokens(\n        uint amountOutMin,\n        address[] calldata path,\n        address to,\n        uint deadline\n    ) external payable returns (uint[] memory amounts);\n}\n\n// WETH \ninterface IWETH {\n    function deposit() external payable;\n}\n\n// ERC20 Token \ninterface IERC20 {\n    function transfer(\n        address recipient,\n        uint256 amount\n    ) external returns (bool);\n}\n\ncontract SwapAndMemo {\n    // ---  ---\n    event MemoizedSwap(\n        address indexed from, // \n        address indexed recipient, // \n        string message, // \n        uint256 amountIn, //  ETH \n        uint256 amountOut //  Token \n    );\n\n    // ---  ---\n    // \n    address public constant UNISWAP_V2_ROUTER =\n        0xc532a74256d3dB421742e45F0E6114C40F2837dA;\n    address public constant WETH = 0x7b79995E5f793A07bC00C21412e50EaAE098e7F9;\n\n    // ---  ---\n    function swapEthForTokenWithMemo(\n        uint256 amountOutMin, //  Token \n        address tokenAddress, //  Token  USDC\n        address recipient, //  Token \n        string calldata message // \n    ) external payable {\n        // 1. \n        require(msg.value > 0, \"Must send ETH to swap\");\n        require(recipient != address(0), \"Invalid recipient\");\n\n        // 2.  Uniswap \n        //  WETH ->  Token\n        address[] memory path = new address[](2);\n        path[0] = WETH;\n        path[1] = tokenAddress;\n\n        // 3.  Uniswap Router \n        //  ETH (msg.value) \n        //  Token  `recipient` \n        uint[] memory amounts = IUniswapV2Router(UNISWAP_V2_ROUTER)\n            .swapExactETHForTokens{value: msg.value}(\n            amountOutMin,\n            path,\n            recipient,\n            block.timestamp // \n        );\n\n        // 4.  The Graph \n        // amounts[0]  WETH , amounts[1]  Token \n        emit MemoizedSwap(\n            msg.sender,\n            recipient,\n            message,\n            amounts[0],\n            amounts[1]\n        );\n    }\n\n    // fallback  ETH\n    receive() external payable {}\n}\n",
  "sourcePath": "/Users/likaikai/learn/onchain-data-system/onchain-system-contracts/contracts/SwapAndMemo.sol",
  "compiler": {
    "name": "solc",
    "version": "0.8.21+commit.d9974bed.Emscripten.clang"
  },
  "schemaVersion": "3.4.16",
  "updatedAt": "2025-08-28T14:56:35.530Z",
  "devdoc": {
    "kind": "dev",
    "methods": {},
    "version": 1
  },
  "userdoc": {
    "kind": "user",
    "methods": {},
    "version": 1
  }
}