{
  "_format": "hh-sol-artifact-1",
  "contractName": "TransferWithMessage",
  "sourceName": "contracts/TransferWithMessage.sol",
  "abi": [
    {
      "anonymous": false,
      "inputs": [
        {
          "indexed": true,
          "internalType": "uint256",
          "name": "transferId",
          "type": "uint256"
        },
        {
          "indexed": true,
          "internalType": "address",
          "name": "from",
          "type": "address"
        },
        {
          "indexed": true,
          "internalType": "address",
          "name": "to",
          "type": "address"
        },
        {
          "indexed": false,
          "internalType": "uint256",
          "name": "amount",
          "type": "uint256"
        },
        {
          "indexed": false,
          "internalType": "string",
          "name": "message",
          "type": "string"
        },
        {
          "indexed": false,
          "internalType": "uint256",
          "name": "timestamp",
          "type": "uint256"
        }
      ],
      "name": "TransferExecuted",
      "type": "event"
    },
    {
      "inputs": [
        {
          "internalType": "address",
          "name": "receiver",
          "type": "address"
        }
      ],
      "name": "getReceiverTransfers",
      "outputs": [
        {
          "internalType": "uint256[]",
          "name": "",
          "type": "uint256[]"
        }
      ],
      "stateMutability": "view",
      "type": "function"
    },
    {
      "inputs": [
        {
          "internalType": "address",
          "name": "sender",
          "type": "address"
        }
      ],
      "name": "getSenderTransfers",
      "outputs": [
        {
          "internalType": "uint256[]",
          "name": "",
          "type": "uint256[]"
        }
      ],
      "stateMutability": "view",
      "type": "function"
    },
    {
      "inputs": [],
      "name": "getTotalTransfers",
      "outputs": [
        {
          "internalType": "uint256",
          "name": "",
          "type": "uint256"
        }
      ],
      "stateMutability": "view",
      "type": "function"
    },
    {
      "inputs": [
        {
          "internalType": "uint256",
          "name": "transferId",
          "type": "uint256"
        }
      ],
      "name": "getTransfer",
      "outputs": [
        {
          "components": [
            {
              "internalType": "uint256",
              "name": "id",
              "type": "uint256"
            },
            {
              "internalType": "address",
              "name": "from",
              "type": "address"
            },
            {
              "internalType": "address",
              "name": "to",
              "type": "address"
            },
            {
              "internalType": "uint256",
              "name": "amount",
              "type": "uint256"
            },
            {
              "internalType": "string",
              "name": "message",
              "type": "string"
            },
            {
              "internalType": "uint256",
              "name": "timestamp",
              "type": "uint256"
            }
          ],
          "internalType": "struct TransferWithMessage.Transfer",
          "name": "",
          "type": "tuple"
        }
      ],
      "stateMutability": "view",
      "type": "function"
    },
    {
      "inputs": [
        {
          "internalType": "uint256",
          "name": "offset",
          "type": "uint256"
        },
        {
          "internalType": "uint256",
          "name": "limit",
          "type": "uint256"
        }
      ],
      "name": "getTransfersBatch",
      "outputs": [
        {
          "components": [
            {
              "internalType": "uint256",
              "name": "id",
              "type": "uint256"
            },
            {
              "internalType": "address",
              "name": "from",
              "type": "address"
            },
            {
              "internalType": "address",
              "name": "to",
              "type": "address"
            },
            {
              "internalType": "uint256",
              "name": "amount",
              "type": "uint256"
            },
            {
              "internalType": "string",
              "name": "message",
              "type": "string"
            },
            {
              "internalType": "uint256",
              "name": "timestamp",
              "type": "uint256"
            }
          ],
          "internalType": "struct TransferWithMessage.Transfer[]",
          "name": "",
          "type": "tuple[]"
        }
      ],
      "stateMutability": "view",
      "type": "function"
    },
    {
      "inputs": [
        {
          "internalType": "address",
          "name": "",
          "type": "address"
        },
        {
          "internalType": "uint256",
          "name": "",
          "type": "uint256"
        }
      ],
      "name": "receiverTransfers",
      "outputs": [
        {
          "internalType": "uint256",
          "name": "",
          "type": "uint256"
        }
      ],
      "stateMutability": "view",
      "type": "function"
    },
    {
      "inputs": [
        {
          "internalType": "address",
          "name": "",
          "type": "address"
        },
        {
          "internalType": "uint256",
          "name": "",
          "type": "uint256"
        }
      ],
      "name": "senderTransfers",
      "outputs": [
        {
          "internalType": "uint256",
          "name": "",
          "type": "uint256"
        }
      ],
      "stateMutability": "view",
      "type": "function"
    },
    {
      "inputs": [],
      "name": "transferCounter",
      "outputs": [
        {
          "internalType": "uint256",
          "name": "",
          "type": "uint256"
        }
      ],
      "stateMutability": "view",
      "type": "function"
    },
    {
      "inputs": [
        {
          "internalType": "address",
          "name": "to",
          "type": "address"
        },
        {
          "internalType": "string",
          "name": "message",
          "type": "string"
        }
      ],
      "name": "transferWithMessage",
      "outputs": [],
      "stateMutability": "payable",
      "type": "function"
    },
    {
      "inputs": [
        {
          "internalType": "uint256",
          "name": "",
          "type": "uint256"
        }
      ],
      "name": "transfers",
      "outputs": [
        {
          "internalType": "uint256",
          "name": "id",
          "type": "uint256"
        },
        {
          "internalType": "address",
          "name": "from",
          "type": "address"
        },
        {
          "internalType": "address",
          "name": "to",
          "type": "address"
        },
        {
          "internalType": "uint256",
          "name": "amount",
          "type": "uint256"
        },
        {
          "internalType": "string",
          "name": "message",
          "type": "string"
        },
        {
          "internalType": "uint256",
          "name": "timestamp",
          "type": "uint256"
        }
      ],
      "stateMutability": "view",
      "type": "function"
    }
  ],
  "bytecode": "0x608060405234801561001057600080fd5b50611c66806100206000396000f3fe6080604052600436106100915760003560e01c80639c51d4a1116100595780639c51d4a1146101a8578063a44577a1146101e5578063bcf0118814610222578063c16fe9071461023e578063dbe6b53f1461027b57610091565b80630822e791146100965780630aefa997146100d35780632bbdcb4e146100fe5780633cf8ddf21461013b5780639377d71114610166575b600080fd5b3480156100a257600080fd5b506100bd60048036038101906100b89190610eba565b6102b8565b6040516100ca9190610faf565b60405180910390f35b3480156100df57600080fd5b506100e861034f565b6040516100f59190610fe0565b60405180910390f35b34801561010a57600080fd5b5061012560048036038101906101209190611027565b610358565b6040516101329190610fe0565b60405180910390f35b34801561014757600080fd5b50610150610389565b60405161015d9190610fe0565b60405180910390f35b34801561017257600080fd5b5061018d60048036038101906101889190611067565b61038f565b60405161019f96959493929190611133565b60405180910390f35b3480156101b457600080fd5b506101cf60048036038101906101ca9190610eba565b610493565b6040516101dc9190610faf565b60405180910390f35b3480156101f157600080fd5b5061020c60048036038101906102079190611027565b61052a565b6040516102199190610fe0565b60405180910390f35b61023c60048036038101906102379190611200565b61055b565b005b34801561024a57600080fd5b5061026560048036038101906102609190611067565b61098a565b6040516102729190611342565b60405180910390f35b34801561028757600080fd5b506102a2600480360381019061029d9190611364565b610b57565b6040516102af91906114ef565b60405180910390f35b6060600360008373ffffffffffffffffffffffffffffffffffffffff1673ffffffffffffffffffffffffffffffffffffffff16815260200190815260200160002080548060200260200160405190810160405280929190818152602001828054801561034357602002820191906000526020600020905b81548152602001906001019080831161032f575b50505050509050919050565b60008054905090565b6002602052816000526040600020818154811061037457600080fd5b90600052602060002001600091509150505481565b60005481565b60016020528060005260406000206000915090508060000154908060010160009054906101000a900473ffffffffffffffffffffffffffffffffffffffff16908060020160009054906101000a900473ffffffffffffffffffffffffffffffffffffffff169080600301549080600401805461040a90611540565b80601f016020809104026020016040519081016040528092919081815260200182805461043690611540565b80156104835780601f1061045857610100808354040283529160200191610483565b820191906000526020600020905b81548152906001019060200180831161046657829003601f168201915b5050505050908060050154905086565b6060600260008373ffffffffffffffffffffffffffffffffffffffff1673ffffffffffffffffffffffffffffffffffffffff16815260200190815260200160002080548060200260200160405190810160405280929190818152602001828054801561051e57602002820191906000526020600020905b81548152602001906001019080831161050a575b50505050509050919050565b6003602052816000526040600020818154811061054657600080fd5b90600052602060002001600091509150505481565b600073ffffffffffffffffffffffffffffffffffffffff168373ffffffffffffffffffffffffffffffffffffffff16036105ca576040517f08c379a00000000000000000000000000000000000000000000000000000000081526004016105c1906115bd565b60405180910390fd5b6000341161060d576040517f08c379a00000000000000000000000000000000000000000000000000000000081526004016106049061164f565b60405180910390fd5b6000805490506040518060c001604052808281526020013373ffffffffffffffffffffffffffffffffffffffff1681526020018573ffffffffffffffffffffffffffffffffffffffff16815260200134815260200184848080601f016020809104026020016040519081016040528093929190818152602001838380828437600081840152601f19601f82011690508083019250505050505050815260200142815250600160008381526020019081526020016000206000820151816000015560208201518160010160006101000a81548173ffffffffffffffffffffffffffffffffffffffff021916908373ffffffffffffffffffffffffffffffffffffffff16021790555060408201518160020160006101000a81548173ffffffffffffffffffffffffffffffffffffffff021916908373ffffffffffffffffffffffffffffffffffffffff16021790555060608201518160030155608082015181600401908161077a919061184a565b5060a08201518160050155905050600260003373ffffffffffffffffffffffffffffffffffffffff1673ffffffffffffffffffffffffffffffffffffffff168152602001908152602001600020819080600181540180825580915050600190039060005260206000200160009091909190915055600360008573ffffffffffffffffffffffffffffffffffffffff1673ffffffffffffffffffffffffffffffffffffffff1681526020019081526020016000208190806001815401808255809150506001900390600052602060002001600090919091909150558373ffffffffffffffffffffffffffffffffffffffff163373ffffffffffffffffffffffffffffffffffffffff16827fe69ad19be96927f4d88e0211038b4d842f2a96c2e99b53aaf173e36ff4d20bf0348787426040516108b89493929190611958565b60405180910390a460008473ffffffffffffffffffffffffffffffffffffffff16346040516108e6906119c9565b60006040518083038185875af1925050503d8060008114610923576040519150601f19603f3d011682016040523d82523d6000602084013e610928565b606091505b505090508061096c576040517f08c379a000000000000000000000000000000000000000000000000000000000815260040161096390611a2a565b60405180910390fd5b60008081548092919061097e90611a79565b91905055505050505050565b610992610df0565b60005482106109d6576040517f08c379a00000000000000000000000000000000000000000000000000000000081526004016109cd90611b0d565b60405180910390fd5b600160008381526020019081526020016000206040518060c0016040529081600082015481526020016001820160009054906101000a900473ffffffffffffffffffffffffffffffffffffffff1673ffffffffffffffffffffffffffffffffffffffff1673ffffffffffffffffffffffffffffffffffffffff1681526020016002820160009054906101000a900473ffffffffffffffffffffffffffffffffffffffff1673ffffffffffffffffffffffffffffffffffffffff1673ffffffffffffffffffffffffffffffffffffffff16815260200160038201548152602001600482018054610ac490611540565b80601f0160208091040260200160405190810160405280929190818152602001828054610af090611540565b8015610b3d5780601f10610b1257610100808354040283529160200191610b3d565b820191906000526020600020905b815481529060010190602001808311610b2057829003601f168201915b505050505081526020016005820154815250509050919050565b60606000548310610b9d576040517f08c379a0000000000000000000000000000000000000000000000000000000008152600401610b9490611b79565b60405180910390fd5b60008284610bab9190611b99565b9050600054811115610bbd5760005490505b60008482610bcb9190611bcd565b67ffffffffffffffff811115610be457610be361166f565b5b604051908082528060200260200182016040528015610c1d57816020015b610c0a610df0565b815260200190600190039081610c025790505b50905060008590505b82811015610de457600160008281526020019081526020016000206040518060c0016040529081600082015481526020016001820160009054906101000a900473ffffffffffffffffffffffffffffffffffffffff1673ffffffffffffffffffffffffffffffffffffffff1673ffffffffffffffffffffffffffffffffffffffff1681526020016002820160009054906101000a900473ffffffffffffffffffffffffffffffffffffffff1673ffffffffffffffffffffffffffffffffffffffff1673ffffffffffffffffffffffffffffffffffffffff16815260200160038201548152602001600482018054610d1c90611540565b80601f0160208091040260200160405190810160405280929190818152602001828054610d4890611540565b8015610d955780601f10610d6a57610100808354040283529160200191610d95565b820191906000526020600020905b815481529060010190602001808311610d7857829003601f168201915b50505050508152602001600582015481525050828783610db59190611bcd565b81518110610dc657610dc5611c01565b5b60200260200101819052508080610ddc90611a79565b915050610c26565b50809250505092915050565b6040518060c0016040528060008152602001600073ffffffffffffffffffffffffffffffffffffffff168152602001600073ffffffffffffffffffffffffffffffffffffffff1681526020016000815260200160608152602001600081525090565b600080fd5b600080fd5b600073ffffffffffffffffffffffffffffffffffffffff82169050919050565b6000610e8782610e5c565b9050919050565b610e9781610e7c565b8114610ea257600080fd5b50565b600081359050610eb481610e8e565b92915050565b600060208284031215610ed057610ecf610e52565b5b6000610ede84828501610ea5565b91505092915050565b600081519050919050565b600082825260208201905092915050565b6000819050602082019050919050565b6000819050919050565b610f2681610f13565b82525050565b6000610f388383610f1d565b60208301905092915050565b6000602082019050919050565b6000610f5c82610ee7565b610f668185610ef2565b9350610f7183610f03565b8060005b83811015610fa2578151610f898882610f2c565b9750610f9483610f44565b925050600181019050610f75565b5085935050505092915050565b60006020820190508181036000830152610fc98184610f51565b905092915050565b610fda81610f13565b82525050565b6000602082019050610ff56000830184610fd1565b92915050565b61100481610f13565b811461100f57600080fd5b50565b60008135905061102181610ffb565b92915050565b6000806040838503121561103e5761103d610e52565b5b600061104c85828601610ea5565b925050602061105d85828601611012565b9150509250929050565b60006020828403121561107d5761107c610e52565b5b600061108b84828501611012565b91505092915050565b61109d81610e7c565b82525050565b600081519050919050565b600082825260208201905092915050565b60005b838110156110dd5780820151818401526020810190506110c2565b60008484015250505050565b6000601f19601f8301169050919050565b6000611105826110a3565b61110f81856110ae565b935061111f8185602086016110bf565b611128816110e9565b840191505092915050565b600060c0820190506111486000830189610fd1565b6111556020830188611094565b6111626040830187611094565b61116f6060830186610fd1565b818103608083015261118181856110fa565b905061119060a0830184610fd1565b979650505050505050565b600080fd5b600080fd5b600080fd5b60008083601f8401126111c0576111bf61119b565b5b8235905067ffffffffffffffff8111156111dd576111dc6111a0565b5b6020830191508360018202830111156111f9576111f86111a5565b5b9250929050565b60008060006040848603121561121957611218610e52565b5b600061122786828701610ea5565b935050602084013567ffffffffffffffff81111561124857611247610e57565b5b611254868287016111aa565b92509250509250925092565b61126981610e7c565b82525050565b600082825260208201905092915050565b600061128b826110a3565b611295818561126f565b93506112a58185602086016110bf565b6112ae816110e9565b840191505092915050565b600060c0830160008301516112d16000860182610f1d565b5060208301516112e46020860182611260565b5060408301516112f76040860182611260565b50606083015161130a6060860182610f1d565b50608083015184820360808601526113228282611280565b91505060a083015161133760a0860182610f1d565b508091505092915050565b6000602082019050818103600083015261135c81846112b9565b905092915050565b6000806040838503121561137b5761137a610e52565b5b600061138985828601611012565b925050602061139a85828601611012565b9150509250929050565b600081519050919050565b600082825260208201905092915050565b6000819050602082019050919050565b600060c0830160008301516113e86000860182610f1d565b5060208301516113fb6020860182611260565b50604083015161140e6040860182611260565b5060608301516114216060860182610f1d565b50608083015184820360808601526114398282611280565b91505060a083015161144e60a0860182610f1d565b508091505092915050565b600061146583836113d0565b905092915050565b6000602082019050919050565b6000611485826113a4565b61148f81856113af565b9350836020820285016114a1856113c0565b8060005b858110156114dd57848403895281516114be8582611459565b94506114c98361146d565b925060208a019950506001810190506114a5565b50829750879550505050505092915050565b60006020820190508181036000830152611509818461147a565b905092915050565b7f4e487b7100000000000000000000000000000000000000000000000000000000600052602260045260246000fd5b6000600282049050600182168061155857607f821691505b60208210810361156b5761156a611511565b5b50919050565b7f43616e6e6f74207472616e7366657220746f207a65726f206164647265737300600082015250565b60006115a7601f836110ae565b91506115b282611571565b602082019050919050565b600060208201905081810360008301526115d68161159a565b9050919050565b7f5472616e7366657220616d6f756e74206d75737420626520677265617465722060008201527f7468616e20300000000000000000000000000000000000000000000000000000602082015250565b60006116396026836110ae565b9150611644826115dd565b604082019050919050565b600060208201905081810360008301526116688161162c565b9050919050565b7f4e487b7100000000000000000000000000000000000000000000000000000000600052604160045260246000fd5b60008190508160005260206000209050919050565b60006020601f8301049050919050565b600082821b905092915050565b6000600883026117007fffffffffffffffffffffffffffffffffffffffffffffffffffffffffffffffff826116c3565b61170a86836116c3565b95508019841693508086168417925050509392505050565b6000819050919050565b600061174761174261173d84610f13565b611722565b610f13565b9050919050565b6000819050919050565b6117618361172c565b61177561176d8261174e565b8484546116d0565b825550505050565b600090565b61178a61177d565b611795818484611758565b505050565b5b818110156117b9576117ae600082611782565b60018101905061179b565b5050565b601f8211156117fe576117cf8161169e565b6117d8846116b3565b810160208510156117e7578190505b6117fb6117f3856116b3565b83018261179a565b50505b505050565b600082821c905092915050565b600061182160001984600802611803565b1980831691505092915050565b600061183a8383611810565b9150826002028217905092915050565b611853826110a3565b67ffffffffffffffff81111561186c5761186b61166f565b5b6118768254611540565b6118818282856117bd565b600060209050601f8311600181146118b457600084156118a2578287015190505b6118ac858261182e565b865550611914565b601f1984166118c28661169e565b60005b828110156118ea578489015182556001820191506020850194506020810190506118c5565b868310156119075784890151611903601f891682611810565b8355505b6001600288020188555050505b505050505050565b82818337600083830152505050565b600061193783856110ae565b935061194483858461191c565b61194d836110e9565b840190509392505050565b600060608201905061196d6000830187610fd1565b818103602083015261198081858761192b565b905061198f6040830184610fd1565b95945050505050565b600081905092915050565b50565b60006119b3600083611998565b91506119be826119a3565b600082019050919050565b60006119d4826119a6565b9150819050919050565b7f5472616e73666572206661696c65640000000000000000000000000000000000600082015250565b6000611a14600f836110ae565b9150611a1f826119de565b602082019050919050565b60006020820190508181036000830152611a4381611a07565b9050919050565b7f4e487b7100000000000000000000000000000000000000000000000000000000600052601160045260246000fd5b6000611a8482610f13565b91507fffffffffffffffffffffffffffffffffffffffffffffffffffffffffffffffff8203611ab657611ab5611a4a565b5b600182019050919050565b7f5472616e7366657220646f6573206e6f74206578697374000000000000000000600082015250565b6000611af76017836110ae565b9150611b0282611ac1565b602082019050919050565b60006020820190508181036000830152611b2681611aea565b9050919050565b7f4f6666736574206f7574206f662072616e676500000000000000000000000000600082015250565b6000611b636013836110ae565b9150611b6e82611b2d565b602082019050919050565b60006020820190508181036000830152611b9281611b56565b9050919050565b6000611ba482610f13565b9150611baf83610f13565b9250828201905080821115611bc757611bc6611a4a565b5b92915050565b6000611bd882610f13565b9150611be383610f13565b9250828203905081811115611bfb57611bfa611a4a565b5b92915050565b7f4e487b7100000000000000000000000000000000000000000000000000000000600052603260045260246000fdfea2646970667358221220b8d4a58311afd1390cf5b382f58576cd24e046536e6fbe068e968465d347b7d764736f6c63430008150033",
  "linkReferences": {},
  "deployedLinkReferences": {}
}