{
  "_format": "hh-sol-artifact-1",
  "contractName": "DataStorage",
  "sourceName": "contracts/DataStorage.sol",
  "abi": [
    {
      "anonymous": false,
      "inputs": [
        {
          "indexed": true,
          "internalType": "uint256",
          "name": "eventId",
          "type": "uint256"
        },
        {
          "indexed": true,
          "internalType": "address",
          "name": "from",
          "type": "address"
        },
        {
          "indexed": false,
          "internalType": "string",
          "name": "message",
          "type": "string"
        },
        {
          "indexed": false,
          "internalType": "uint256",
          "name": "timestamp",
          "type": "uint256"
        }
      ],
      "name": "DataWritten",
      "type": "event"
    },
    {
      "inputs": [],
      "name": "eventCounter",
      "outputs": [
        {
          "internalType": "uint256",
          "name": "",
          "type": "uint256"
        }
      ],
      "stateMutability": "view",
      "type": "function"
    },
    {
      "inputs": [
        {
          "internalType": "string",
          "name": "message",
          "type": "string"
        }
      ],
      "name": "writeData",
      "outputs": [],
      "stateMutability": "nonpayable",
      "type": "function"
    }
  ],
  "bytecode": "0x608060405234801561001057600080fd5b50610318806100206000396000f3fe608060405234801561001057600080fd5b50600436106100365760003560e01c8063134bc8761461003b57806352c55db914610057575b600080fd5b6100556004803603810190610050919061015a565b610075565b005b61005f6100e5565b60405161006c91906101c0565b60405180910390f35b3373ffffffffffffffffffffffffffffffffffffffff166000547f69b1904e8a9a1cdb3ac2a9715c93a9188b115b1bc79f97a45cc66ce1086910508484426040516100c293929190610239565b60405180910390a36000808154809291906100dc9061029a565b91905055505050565b60005481565b600080fd5b600080fd5b600080fd5b600080fd5b600080fd5b60008083601f84011261011a576101196100f5565b5b8235905067ffffffffffffffff811115610137576101366100fa565b5b602083019150836001820283011115610153576101526100ff565b5b9250929050565b60008060208385031215610171576101706100eb565b5b600083013567ffffffffffffffff81111561018f5761018e6100f0565b5b61019b85828601610104565b92509250509250929050565b6000819050919050565b6101ba816101a7565b82525050565b60006020820190506101d560008301846101b1565b92915050565b600082825260208201905092915050565b82818337600083830152505050565b6000601f19601f8301169050919050565b600061021883856101db565b93506102258385846101ec565b61022e836101fb565b840190509392505050565b6000604082019050818103600083015261025481858761020c565b905061026360208301846101b1565b949350505050565b7f4e487b7100000000000000000000000000000000000000000000000000000000600052601160045260246000fd5b60006102a5826101a7565b91507fffffffffffffffffffffffffffffffffffffffffffffffffffffffffffffffff82036102d7576102d661026b565b5b60018201905091905056fea2646970667358221220cd2f94668ce0a566a45a0588efa7cc03720d63202d1bec2c2832ac8cdea5a14664736f6c63430008150033",
  "linkReferences": {},
  "deployedLinkReferences": {}
}