{
  "contractName": "SwapAndMemoV3",
  "abi": [
    {
      "anonymous": false,
      "inputs": [
        {
          "indexed": true,
          "internalType": "address",
          "name": "from",
          "type": "address"
        },
        {
          "indexed": true,
          "internalType": "address",
          "name": "recipient",
          "type": "address"
        },
        {
          "indexed": false,
          "internalType": "string",
          "name": "message",
          "type": "string"
        },
        {
          "indexed": false,
          "internalType": "uint256",
          "name": "amountIn",
          "type": "uint256"
        },
        {
          "indexed": false,
          "internalType": "uint256",
          "name": "amountOut",
          "type": "uint256"
        }
      ],
      "name": "MemoizedSwap",
      "type": "event"
    },
    {
      "inputs": [],
      "name": "SWAP_ROUTER",
      "outputs": [
        {
          "internalType": "address",
          "name": "",
          "type": "address"
        }
      ],
      "stateMutability": "view",
      "type": "function",
      "constant": true
    },
    {
      "inputs": [],
      "name": "WETH",
      "outputs": [
        {
          "internalType": "address",
          "name": "",
          "type": "address"
        }
      ],
      "stateMutability": "view",
      "type": "function",
      "constant": true
    },
    {
      "stateMutability": "payable",
      "type": "receive",
      "payable": true
    },
    {
      "inputs": [
        {
          "internalType": "uint256",
          "name": "amountOutMinimum",
          "type": "uint256"
        },
        {
          "internalType": "address",
          "name": "tokenOut",
          "type": "address"
        },
        {
          "internalType": "uint24",
          "name": "fee",
          "type": "uint24"
        },
        {
          "internalType": "address",
          "name": "recipient",
          "type": "address"
        },
        {
          "internalType": "string",
          "name": "message",
          "type": "string"
        }
      ],
      "name": "swapEthForTokenWithMemoV3",
      "outputs": [
        {
          "internalType": "uint256",
          "name": "amountOut",
          "type": "uint256"
        }
      ],
      "stateMutability": "payable",
      "type": "function",
      "payable": true
    }
  ],
  "bytecode": "0x608060405234801561000f575f80fd5b506109078061001d5f395ff3fe608060405260043610610037575f3560e01c8063ad5c464814610042578063c60058931461006c578063d4a88e67146100965761003e565b3661003e57005b5f80fd5b34801561004d575f80fd5b506100566100c6565b6040516100639190610440565b60405180910390f35b348015610077575f80fd5b506100806100de565b60405161008d9190610440565b60405180910390f35b6100b060048036038101906100ab9190610557565b6100f6565b6040516100bd91906105fc565b60405180910390f35b73fff9976782d46cc05630d1f6ebab18b2324d6b1481565b737a250d5630b4cf539739df2c5dacb4c659f2488d81565b5f803411610139576040517f08c379a00000000000000000000000000000000000000000000000000000000081526004016101309061066f565b60405180910390fd5b73fff9976782d46cc05630d1f6ebab18b2324d6b1473ffffffffffffffffffffffffffffffffffffffff1663d0e30db0346040518263ffffffff1660e01b81526004015f604051808303818588803b158015610193575f80fd5b505af11580156101a5573d5f803e3d5ffd5b505050505073fff9976782d46cc05630d1f6ebab18b2324d6b1473ffffffffffffffffffffffffffffffffffffffff1663095ea7b3737a250d5630b4cf539739df2c5dacb4c659f2488d346040518363ffffffff1660e01b815260040161020d92919061068d565b6020604051808303815f875af1158015610229573d5f803e3d5ffd5b505050506040513d601f19601f8201168201806040525081019061024d91906106e9565b505f60405180610100016040528073fff9976782d46cc05630d1f6ebab18b2324d6b1473ffffffffffffffffffffffffffffffffffffffff1681526020018873ffffffffffffffffffffffffffffffffffffffff1681526020018762ffffff1681526020018673ffffffffffffffffffffffffffffffffffffffff1681526020014281526020013481526020018981526020015f73ffffffffffffffffffffffffffffffffffffffff168152509050737a250d5630b4cf539739df2c5dacb4c659f2488d73ffffffffffffffffffffffffffffffffffffffff1663414bf389826040518263ffffffff1660e01b815260040161034991906107f0565b6020604051808303815f875af1158015610365573d5f803e3d5ffd5b505050506040513d601f19601f82011682018060405250810190610389919061081e565b91508473ffffffffffffffffffffffffffffffffffffffff163373ffffffffffffffffffffffffffffffffffffffff167f83ebb074acde6c9d1f4c31800aeba25426240672b8bdcb830f24d1f83da9366f868634876040516103ee9493929190610893565b60405180910390a3509695505050505050565b5f73ffffffffffffffffffffffffffffffffffffffff82169050919050565b5f61042a82610401565b9050919050565b61043a81610420565b82525050565b5f6020820190506104535f830184610431565b92915050565b5f80fd5b5f80fd5b5f819050919050565b61047381610461565b811461047d575f80fd5b50565b5f8135905061048e8161046a565b92915050565b61049d81610420565b81146104a7575f80fd5b50565b5f813590506104b881610494565b92915050565b5f62ffffff82169050919050565b6104d5816104be565b81146104df575f80fd5b50565b5f813590506104f0816104cc565b92915050565b5f80fd5b5f80fd5b5f80fd5b5f8083601f840112610517576105166104f6565b5b8235905067ffffffffffffffff811115610534576105336104fa565b5b6020830191508360018202830111156105505761054f6104fe565b5b9250929050565b5f805f805f8060a0878903121561057157610570610459565b5b5f61057e89828a01610480565b965050602061058f89828a016104aa565b95505060406105a089828a016104e2565b94505060606105b189828a016104aa565b935050608087013567ffffffffffffffff8111156105d2576105d161045d565b5b6105de89828a01610502565b92509250509295509295509295565b6105f681610461565b82525050565b5f60208201905061060f5f8301846105ed565b92915050565b5f82825260208201905092915050565b7f4d7573742073656e6420455448000000000000000000000000000000000000005f82015250565b5f610659600d83610615565b915061066482610625565b602082019050919050565b5f6020820190508181035f8301526106868161064d565b9050919050565b5f6040820190506106a05f830185610431565b6106ad60208301846105ed565b9392505050565b5f8115159050919050565b6106c8816106b4565b81146106d2575f80fd5b50565b5f815190506106e3816106bf565b92915050565b5f602082840312156106fe576106fd610459565b5b5f61070b848285016106d5565b91505092915050565b61071d81610420565b82525050565b61072c816104be565b82525050565b61073b81610461565b82525050565b61074a81610401565b82525050565b61010082015f8201516107655f850182610714565b5060208201516107786020850182610714565b50604082015161078b6040850182610723565b50606082015161079e6060850182610714565b5060808201516107b16080850182610732565b5060a08201516107c460a0850182610732565b5060c08201516107d760c0850182610732565b5060e08201516107ea60e0850182610741565b50505050565b5f610100820190506108045f830184610750565b92915050565b5f815190506108188161046a565b92915050565b5f6020828403121561083357610832610459565b5b5f6108408482850161080a565b91505092915050565b828183375f83830152505050565b5f601f19601f8301169050919050565b5f6108728385610615565b935061087f838584610849565b61088883610857565b840190509392505050565b5f6060820190508181035f8301526108ac818688610867565b90506108bb60208301856105ed565b6108c860408301846105ed565b9594505050505056fea2646970667358221220b5204a0768abb2579779c6ce6421ab46c82e4f9336ab4afbee9d39ed0f57836d64736f6c63430008150033",
  "immutableReferences": {},
  "source": "// contracts/SwapAndMemoV3.sol\r\n// SPDX-License-Identifier: MIT\r\npragma solidity ^0.8.20;\r\n\r\n// V3 Router  V2 \r\ninterface IUniswapV3SwapRouter {\r\n    struct ExactInputSingleParams {\r\n        address tokenIn;\r\n        address tokenOut;\r\n        uint24 fee;\r\n        address recipient;\r\n        uint256 deadline;\r\n        uint256 amountIn;\r\n        uint256 amountOutMinimum;\r\n        uint160 sqrtPriceLimitX96;\r\n    }\r\n    function exactInputSingle(ExactInputSingleParams calldata params) external payable returns (uint256 amountOut);\r\n}\r\n\r\n//  WETH  ERC20 \r\ninterface IWETH {\r\n    function deposit() external payable;\r\n    function withdraw(uint wad) external;\r\n    function approve(address spender, uint256 amount) external returns (bool);\r\n}\r\n\r\ninterface IERC20 {\r\n    function transfer(address recipient, uint256 amount) external returns (bool);\r\n}\r\n\r\ncontract SwapAndMemoV3 {\r\n    //  The Graph \r\n    event MemoizedSwap(\r\n        address indexed from,\r\n        address indexed recipient,\r\n        string message,\r\n        uint256 amountIn,\r\n        uint256 amountOut\r\n    );\r\n\r\n    // --- V3  ---\r\n    address public constant SWAP_ROUTER = 0x7a250d5630B4cF539739dF2C5dAcb4c659F2488D;\r\n    address public constant WETH = 0xfFf9976782d46CC05630D1f6eBAb18b2324d6B14;\r\n\r\n    function swapEthForTokenWithMemoV3(\r\n        uint256 amountOutMinimum,\r\n        address tokenOut,\r\n        uint24 fee, // \r\n        address recipient,\r\n        string calldata message\r\n    ) external payable returns (uint256 amountOut) {\r\n        // 1. \r\n        require(msg.value > 0, \"Must send ETH\");\r\n\r\n        // 2.  ETH  WETH\r\n        IWETH(WETH).deposit{value: msg.value}();\r\n        \r\n        // 3.  V3 Router  WETH\r\n        IWETH(WETH).approve(SWAP_ROUTER, msg.value);\r\n\r\n        // 4.  V3 \r\n        IUniswapV3SwapRouter.ExactInputSingleParams memory params = IUniswapV3SwapRouter\r\n            .ExactInputSingleParams({\r\n                tokenIn: WETH,\r\n                tokenOut: tokenOut,\r\n                fee: fee,\r\n                recipient: recipient, // Token \r\n                deadline: block.timestamp,\r\n                amountIn: msg.value,\r\n                amountOutMinimum: amountOutMinimum,\r\n                sqrtPriceLimitX96: 0\r\n            });\r\n\r\n        // 5.  V3 Router \r\n        amountOut = IUniswapV3SwapRouter(SWAP_ROUTER).exactInputSingle(params);\r\n\r\n        // 6. \r\n        emit MemoizedSwap(msg.sender, recipient, message, msg.value, amountOut);\r\n    }\r\n\r\n    //  ETH\r\n    receive() external payable {}\r\n}",
  "sourcePath": "D:\\learn\\onchain-data-system\\onchain-system-contracts\\contracts\\SwapAndMemoV3.sol",
  "compiler": {
    "name": "solc",
    "version": "0.8.21+commit.d9974bed.Emscripten.clang"
  },
  "schemaVersion": "3.4.16",
  "updatedAt": "2025-08-29T04:10:36.531Z",
  "networkType": "ethereum",
  "devdoc": {
    "kind": "dev",
    "methods": {},
    "version": 1
  },
  "userdoc": {
    "kind": "user",
    "methods": {},
    "version": 1
  }
}